:020000040000FA
:04000000DFEF0EF030
:10060000003F065B4F666D7D077F6F777C395E79B3
:1006100071554C44525358414259734D6F646F2089
:100620006573636F6C6869646F3A20004573636F2C
:100630006C6861206F206D6F646F3A2000457371A4
:1006400075656E74617220636F6D696461005061DD
:100650006F20646520717565696A6F00417373610D
:100660007220626F6C6F0061717565636572002046
:10067000202020200000800E08EC10F0700E0F6E7D
:10068000060E106E6EEC0DF0000E126E040E116E62
:10069000E4EC0DF05F0E1114246E256A2AEC0EF0C6
:1006A00024C02EF025C02FF0000E196E0A0E186E11
:1006B0002EC016F02FC017F076EC0AF016C028F006
:1006C00017C029F0000E2B6E0A0E2A6E32EC0BF0CA
:1006D0002850300FF9EC0FF0000E126E040E116E60
:1006E000E4EC0DF05F0E1114246E256A2AEC0EF076
:1006F00024C028F025C029F0000E2B6E0A0E2A6EA9
:1007000032EC0BF02850300FF9EC0FF02F0EF9EC13
:100710000FF0000E126E050E116EE4EC0DF03F0EA0
:100720001114246E256A2AEC0EF024C02EF025C088
:100730002FF0000E196E0A0E186E2EC016F02FC084
:1007400017F076EC0AF016C028F017C029F0000E5A
:100750002B6E0A0E2A6E32EC0BF02850300FF9EC9B
:100760000FF0000E126E050E116EE4EC0DF03F0E50
:100770001114246E256A2AEC0EF024C028F025C03E
:1007800029F0000E2B6E0A0E2A6E32EC0BF0285068
:10079000300FF9EC0FF02F0EF9EC0FF0000E126E87
:1007A000060E116EE4EC0DF01150246E256A2AEC51
:1007B0000EF024C02EF025C02FF0000E196E0A0E88
:1007C000186E2EC016F02FC017F076EC0AF016C087
:1007D00028F017C029F0000E2B6E0A0E2A6E32EC9C
:1007E0000BF02850300FF9EC0FF0000E126E060ED1
:1007F000116EE4EC0DF01150246E256A2AEC0EF017
:1008000024C028F025C029F0000E2B6E0A0E2A6E97
:1008100032EC0BF02850300FF9EC0FF0C00E08EC62
:1008200010F06F0E0F6E060E106E6EEC0DF0000ED7
:10083000126E020E116EE4EC0DF05F0E1114246EB8
:10084000256A2AEC0EF024C02EF025C02FF0000EF1
:10085000196E0A0E186E2EC016F02FC017F076EC27
:100860000AF016C028F017C029F0000E2B6E0A0EF1
:100870002A6E32EC0BF02850300FF9EC0FF0000E1E
:10088000126E020E116EE4EC0DF05F0E1114246E68
:10089000256A2AEC0EF024C028F025C029F0000EAD
:1008A0002B6E0A0E2A6E32EC0BF02850300FF9EC4A
:1008B0000FF03A0EF9EC0FF0000E126E010E116EF1
:1008C000E4EC0DF07F0E1114246E256A2AEC0EF074
:1008D00024C02EF025C02FF0000E196E0A0E186EDF
:1008E0002EC016F02FC017F076EC0AF016C028F0D4
:1008F00017C029F0000E2B6E0A0E2A6E32EC0BF098
:100900002850300FF9EC0FF0000E126E010E116E30
:10091000E4EC0DF07F0E1114246E256A2AEC0EF023
:1009200024C028F025C029F0000E2B6E0A0E2A6E76
:1009300032EC0BF02850300FF9EC0FF0120002BE31
:10094000ADEF04F0025007E1080E015CD8B0ABEF48
:1009500004F0ADEF04F0D7EF04F003500410D8B466
:10096000B4EF04F0B6EF04F0C6EF04F001C005F0F8
:10097000010E066E052ABFEF04F0D8900636052E4C
:10098000BDEF04F006508012C5EF05F001C005F080
:10099000010E066E052ACFEF04F0D8900636052E1C
:1009A000CDEF04F00650FF0A8016C5EF05F002BE39
:1009B000E5EF04F0025007E1100E015CD8B0E3EF60
:1009C00004F0E5EF04F013EF05F0F80E0126FF0E3A
:1009D000022203500410D8B4F0EF04F0F2EF04F058
:1009E00002EF05F001C005F0010E066E052AFBEFCF
:1009F00004F0D8900636052EF9EF04F00650811267
:100A0000C5EF05F001C005F0010E066E052A0BEFDB
:100A100005F0D8900636052E09EF05F00650FF0ABE
:100A20008116C5EF05F002BE21EF05F0025007E187
:100A3000180E015CD8B01FEF05F021EF05F04FEF65
:100A400005F0F00E0126FF0E022203500410D8B468
:100A50002CEF05F02EEF05F03EEF05F001C005F09C
:100A6000010E066E052A37EF05F0D8900636052EE2
:100A700035EF05F006508212C5EF05F001C005F014
:100A8000010E066E052A47EF05F0D8900636052EB2
:100A900045EF05F00650FF0A8216C5EF05F002BECD
:100AA0005DEF05F0025007E1200E015CD8B05BEF6E
:100AB00005F05DEF05F08BEF05F0E80E0126FF0E67
:100AC000022203500410D8B468EF05F06AEF05F075
:100AD0007AEF05F001C005F0010E066E052A73EFEE
:100AE00005F0D8900636052E71EF05F006508312FA
:100AF000C5EF05F001C005F0010E066E052A83EF73
:100B000005F0D8900636052E81EF05F00650FF0A55
:100B10008316C5EF05F002BE99EF05F0025007E11C
:100B2000280E015CD8B097EF05F099EF05F0C5EFFE
:100B300005F0E00E0126FF0E022203500410D8B487
:100B4000A4EF05F0A6EF05F0B6EF05F001C005F043
:100B5000010E066E052AAFEF05F0D8900636052E79
:100B6000ADEF05F006508412C5EF05F001C005F0A9
:100B7000010E066E052ABFEF05F0D8900636052E49
:100B8000BDEF05F00650FF0A8416120002BED4EF36
:100B900005F0025007E1080E015CD8B0D2EF05F075
:100BA000D4EF05F0FEEF05F003500410D8B4DBEFEE
:100BB00005F0DDEF05F0EDEF05F001C005F0010EE9
:100BC000066E052AE6EF05F0D8900636052EE4EF0E
:100BD00005F006509212ECEF06F001C005F0010E90
:100BE000066E052AF6EF05F0D8900636052EF4EFCE
:100BF00005F00650FF0A9216ECEF06F002BE0CEF6D
:100C000006F0025007E1100E015CD8B00AEF06F0C2
:100C10000CEF06F03AEF06F003500410D8B413EFCF
:100C200006F015EF06F027EF06F001C005F0F80E0C
:100C30000526010E066E052A20EF06F0D89006362E
:100C4000052E1EEF06F006509312ECEF06F001C0E1
:100C500005F0F80E0526010E066E052A32EF06F0A5
:100C6000D8900636052E30EF06F00650FF0A931690
:100C7000ECEF06F002BE48EF06F0025007E1180E56
:100C8000015CD8B046EF06F048EF06F076EF06F0CC
:100C900003500410D8B44FEF06F051EF06F063EFA5
:100CA00006F001C005F0F00E0526010E066E052ABD
:100CB0005CEF06F0D8900636052E5AEF06F0065087
:100CC0009412ECEF06F001C005F0F00E0526010EBF
:100CD000066E052A6EEF06F0D8900636052E6CEFEC
:100CE00006F00650FF0A9416ECEF06F002BE84EF01
:100CF00006F0025007E1200E015CD8B082EF06F04A
:100D000084EF06F0B2EF06F003500410D8B48BEF76
:100D100006F08DEF06F09FEF06F001C005F0E80E3B
:100D20000526010E066E052A98EF06F0D8900636C5
:100D3000052E96EF06F006509512ECEF06F001C076
:100D400005F0E80E0526010E066E052AAAEF06F04C
:100D5000D8900636052EA8EF06F00650FF0A951625
:100D6000ECEF06F002BEC0EF06F0025007E1280EDD
:100D7000015CD8B0BEEF06F0C0EF06F0ECEF06F075
:100D800003500410D8B4C7EF06F0C9EF06F0DBEF4C
:100D900006F001C005F0E00E0526010E066E052ADC
:100DA000D4EF06F0D8900636052ED2EF06F00650A6
:100DB0009612ECEF06F001C005F0E00E0526010EDC
:100DC000066E052AE6EF06F0D8900636052EE4EF0B
:100DD00006F00650FF0A96161200000E026E180E5C
:100DE000016E000E046E000E036E9FEC04F0000E08
:100DF000026E190E016E000E046E000E036E9FEC63
:100E000004F0000E026E1A0E016E000E046E000E4B
:100E1000036E9FEC04F0000E026E1B0E016E000EBE
:100E2000046E000E036E9FEC04F0000E086E000EC0
:100E3000076E99EC0DF085EF07F0010E4524F66E74
:100E4000F76A060EF7220800F550076E086A99EC5B
:100E50000DF0000E026E180E016E000E046E010EF3
:100E6000036E9FEC04F0010E466EA2EF07F0010E38
:100E70004424F66EF76A060EF7220800F550076E56
:100E8000086A99EC0DF0000E026E190E016E000E4C
:100E9000046E010E036E9FEC04F0020E466EA2EF8C
:100EA00007F0010E4324F66EF76A060EF7220800DB
:100EB000F550076E086A99EC0DF0000E026E1A0EDE
:100EC000016E000E046E010E036E9FEC04F0030E23
:100ED000466EA2EF07F0010E4224F66EF76A060E88
:100EE000F7220800F550076E086A99EC0DF0000E25
:100EF000026E1B0E016E000E046E010E036E9FEC5F
:100F000004F0000E466EA2EF07F046500A6E0B6A20
:100F10000B50000AD8B48FEF07F081EF07F00A50AA
:100F2000000AD8B41DEF07F0010AD8B437EF07F074
:100F3000030AD8B451EF07F0010AD8B46BEF07F0F9
:100F400081EF07F0120002BEB1EF07F0025007E197
:100F5000080E015CD8B0AFEF07F0B1EF07F0C5EFB6
:100F600007F001C003F0010E046E032ABAEF07F088
:100F7000D8900436032EB8EF07F004508014056EA5
:100F80000550016E026A57EF08F002BED3EF07F07A
:100F9000025007E1100E015CD8B0D1EF07F0D3EF9B
:100FA00007F0E9EF07F001C003F0F80E0326010E89
:100FB000046E032ADEEF07F0D8900436032EDCEF30
:100FC00007F004508114056E0550016E026A57EF58
:100FD00008F002BEF7EF07F0025007E1180E015CBF
:100FE000D8B0F5EF07F0F7EF07F00DEF08F001C00C
:100FF00003F0F00E0326010E046E032A02EF08F040
:10100000D8900436032E00EF08F004508214056EC9
:101010000550016E026A57EF08F002BE1BEF08F0A0
:10102000025007E1200E015CD8B019EF08F01BEF69
:1010300008F031EF08F001C003F0E80E0326010EBE
:10104000046E032A26EF08F0D8900436032E24EF0E
:1010500008F004508314056E0550016E026A57EFC4
:1010600008F002BE3FEF08F0025007E1280E015CD5
:10107000D8B03DEF08F03FEF08F055EF08F001C0A1
:1010800003F0E00E0326010E046E032A4AEF08F077
:10109000D8900436032E48EF08F004508414056EEF
:1010A0000550016E026A57EF08F0016802681200ED
:1010B000000E386E000E376E000E0E6E000E0D6EB6
:1010C0000EBE6CEF08F00E5009E1050E0D5CD8A0C5
:1010D0006CEF08F06EEF08F070EF08F0D1EF08F059
:1010E0000DC00AF0030E0A26010E0B6E000E0C6EE8
:1010F0000A2A7EEF08F0D8900B360C360A2E7BEFCA
:1011000008F00BC007F00CC008F099EC0DF0000ED1
:10111000026E0A0E016EA3EC07F001500210D8B463
:1011200094EF08F096EF08F0A9EF08F00DC00AF070
:10113000010E0B6E000E0C6E0A2AA2EF08F0D8907A
:101140000B360C360A2E9FEF08F00B5037120C505E
:101150003812000E026E090E016EA3EC07F001506A
:101160000210D8B4B6EF08F0B8EF08F0CDEF08F0F1
:101170000DC00AF0050E0A26010E0B6E000E0C6E55
:101180000A2AC6EF08F0D8900B360C360A2EC3EFA9
:1011900008F00B5037120C5038120D4A0E2A60EF2F
:1011A00008F03750351807E138503618D8A4DBEF6F
:1011B00008F0DDEF08F0E0EF08F04706E6EF08F092
:1011C000010E476E37C035F038C036F04750D8A40E
:1011D000ECEF08F0EEEF08F0F2EF08F035C039F070
:1011E00036C03AF01200000E346E000E336E000E60
:1011F000326EC0EC0DF043EC0DF0D8EC0AF0FAECD6
:101200000EF03BEC10F017EC10F0010E836E0DEFBA
:1012100009F03BEC03F023EC0CF04A50D8B413EF88
:1012200009F015EF09F009EF09F0010E08EC10F0D4
:10123000000E4A6E20EF09F013EC0AF023EC0CF0DC
:101240004A50D8B426EF09F028EF09F01CEF09F056
:10125000000E4A6E010E08EC10F033EF09F0C3ECFB
:101260000EF023EC0CF04A50D8B439EF09F03BEF04
:1012700009F02FEF09F03A0E026E980E016EE8ECBD
:101280000FF066EF09F023EC0CF0010E346E7BEFEB
:1012900009F0020E836E335009E1650E325CD8A06E
:1012A00054EF09F056EF09F05CEF09F0000E336ED1
:1012B000000E326EDBEC0BF08AEC0BF0000E346E9D
:1012C0007BEF09F0000E346E7BEF09F03450306E86
:1012D000316A3150000AD8B470EF09F062EF09F0BA
:1012E0003050000AD8B443EF09F0010AD8B449EFEE
:1012F00009F062EF09F04950D8B481EF09F083EFAB
:1013000009F085EF09F0324A332AEDEC06F02EECB5
:1013100010F03BEF09F000EF00F0000E0A6E08BE7F
:1013200096EF09F094EF09F0A0EF09F0081E071EF0
:10133000061E056C000E062207220822010E0A6E08
:1013400004BEA7EF09F0A5EF09F0B1EF09F0041E04
:10135000031E021E016C000E022203220422010E53
:101360000A1A000E0B6E000E0C6E000E0D6E000EB3
:101370000E6E0550061007100810D8B4C2EF09F021
:10138000C4EF09F0FAEF09F0010E096ECEEF09F093
:10139000D8900536063607360836092A08AED3EF48
:1013A00009F0D5EF09F0C8EF09F0D8900B360C36EC
:1013B0000D360E360550015C065002580750035892
:1013C00008500458D8A0E7EF09F0E9EF09F0F2EF70
:1013D00009F00550015E0650025A0750035A0850A2
:1013E000045A0B80D8900832073206320532092E93
:1013F000D5EF09F00A50D8B400EF0AF002EF0AF076
:101400000AEF0AF00E1E0D1E0C1E0B6C000E0C22B5
:101410000D220E220BC001F00CC002F00DC003F033
:101420000EC004F0120058EC08F036EC10F05B50DF
:10143000011809E15C500218D8B421EF0AF023EF3B
:101440000AF075EF0AF036EC10F001C05BF002C054
:101450005CF0800E08EC10F02C0E0F6E060E106E75
:101460006EEC0DF0C00E08EC10F0D8903F34D96E41
:101470004034DA6E530ED926000EDA22DECF0FF09A
:10148000DDCF10F06EEC0DF0D8903F34D96E4034C3
:10149000DA6E4B0ED926000EDA22DECF3DF0DDCF1C
:1014A0003EF0000E3C6E000E3B6E5BAE5AEF0AF053
:1014B0005CEF0AF075EF0AF0010E08EC10F040BE88
:1014C0006DEF0AF0405007E1030E3F5CD8B06BEFC0
:1014D0000AF06DEF0AF071EF0AF03F4A402A75EF0B
:1014E0000AF0000E406E000E3F6E1200000E1B6EE2
:1014F00019BE7FEF0AF07DEF0AF085EF0AF0186C55
:10150000191ED8B0192A010E1B6E17BE8CEF0AF0F7
:101510008AEF0AF092EF0AF0166C171ED8B0172A5D
:10152000010E1B1A000E1D6E000E1C6E18501910B5
:10153000D8B49DEF0AF09FEF0AF0C7EF0AF0010E52
:101540001A6EA7EF0AF0D890183619361A2A19AE73
:10155000ACEF0AF0AEEF0AF0A3EF0AF0D8901C3619
:101560001D361850165C19501758D8A0BAEF0AF05B
:10157000BCEF0AF0C1EF0AF01850165E1950175A66
:101580001C80D890193218321A2EAEEF0AF01B5078
:10159000D8B4CDEF0AF0CFEF0AF0D3EF0AF01C6C0D
:1015A0001D1ED8B01D2A1CC016F01DC017F0120059
:1015B000000E026E1C0E016E000E046E000E036E15
:1015C000C6EC05F0000E026E1D0E016E000E046EDC
:1015D000000E036EC6EC05F06CEC0EF0000E026E11
:1015E0000F0E016E2CEC0FF0000E0B6E000E0A6E4B
:1015F000030EC2EC0FF0000E026E050E016E2CEC15
:101600000FF0000E0B6E000E0A6E030EC2EC0FF010
:10161000000E026EA00E016E40EC10F0000E0B6E7C
:10162000000E0A6E030EC2EC0FF0000E026EA00E4A
:10163000016E40EC10F0000E0B6E000E0A6E020EF2
:10164000C2EC0FF0000E026E0A0E016E2CEC0FF0D1
:10165000280E08EC10F00C0E08EC10F0010E08EC4F
:1016600010F01200000E2D6E29BE3BEF0BF039EF8B
:101670000BF041EF0BF0286C291ED8B0292A010E7F
:101680002D6E2BBE48EF0BF046EF0BF04CEF0BF03E
:101690002A6C2B1ED8B02B2A2A502B10D8B453EF0B
:1016A0000BF055EF0BF079EF0BF0010E2C6E5DEFA8
:1016B0000BF0D8902A362B362C2A2BAE62EF0BF08B
:1016C00064EF0BF059EF0BF02A50285C2B5029588F
:1016D000D8A06DEF0BF06FEF0BF073EF0BF02A500B
:1016E000285E2B50295AD8902B322A322C2E64EFA8
:1016F0000BF02D50D8B47FEF0BF081EF0BF085EF9E
:101700000BF0286C291ED8B0292A28C028F029C03F
:1017100029F01200000E2E6E000E196E0A0E186EC1
:101720003DC016F03EC017F076EC0AF016C028F067
:1017300017C029F0000E2B6E0A0E2A6E32EC0BF049
:10174000285017EC0DF0010E2E6E3DC028F03EC063
:1017500029F0000E2B6E0A0E2A6E32EC0BF0285088
:1017600017EC0DF0020E2E6E000E196E0A0E186E9A
:101770003BC016F03CC017F076EC0AF016C028F01B
:1017800017C029F0000E2B6E0A0E2A6E32EC0BF0F9
:10179000285017EC0DF0030E2E6E3BC028F03CC015
:1017A00029F0000E2B6E0A0E2A6E32EC0BF0285038
:1017B00017EC0DF012004950D8B4E1EF0BF0E3EF55
:1017C0000BF022EF0CF03B06D8A03C063CBEEDEF40
:1017D0000BF0EBEF0BF001EF0CF03EBEF8EF0BF06F
:1017E0003E5008E13D04D8A0F8EF0BF0FAEF0BF003
:1017F00001EF0CF0000E3C6E3B0E3B6E3D06D8A098
:101800003E063CBE08EF0CF006EF0CF022EF0CF0A9
:101810003D503E10D8A40FEF0CF011EF0CF022EF6A
:101820000CF0000E3C6E000E3B6E4950D8B41BEF1E
:101830000CF01EEF0CF0010E1FEF0CF0000E496EC5
:10184000010E486E120058EC08F036EC10F05D50B6
:10185000011809E15E500218D8B431EF0CF033EFF3
:101860000CF059EF0CF036EC10F001C05DF002C046
:101870005EF05EA23EEF0CF040EF0CF045EF0CF096
:10188000010E4A6E010E08EC10F05DA84AEF0CF054
:101890004CEF0CF059EF0CF04950D8B452EF0CF06B
:1018A00055EF0CF0010E56EF0CF0000E496E000ED5
:1018B000486E12000C6E000E0E6E000E0D6E000EC5
:1018C000106E000E0F6E13EC0FF0096E09500DC074
:1018D0000AF00EC00BF0D8900A360B360A100D6EC7
:1018E0000B500E6E0F4A102A105009E1080E0F5CC3
:1018F000D8A07DEF0CF07FEF0CF063EF0CF00C50F4
:10190000EBEC0CF00850D8B488EF0CF08AEF0CF038
:101910008CEF0CF044EC0FF00D5012000A6E0A50E0
:10192000D8B495EF0CF097EF0CF099EF0CF007ECB2
:101930000EF0000E0B6E09BEA0EF0CF0A3EF0CF042
:10194000010EA4EF0CF0000EEBEC0CF0D890093671
:101950000B2A070E0B64AFEF0CF0B1EF0CF09BEF0E
:101960000CF013EC0FF00850D8B4B9EF0CF0BBEF4B
:101970000CF0BDEF0CF044EC0FF012000D6E0DC03A
:101980000CF00C3A0F0E0C160C50076E086A99EC0E
:101990000DF0000E026E1D0E016E0AC003F00BC0AA
:1019A00004F09FEC04F04BEC0EF00DC00CF00F0EA9
:1019B0000C160C50076E086A99EC0DF0000E026EC2
:1019C0001D0E016E0AC003F00BC004F09FEC04F082
:1019D0004BEC0EF01200076E0750D8B4F2EF0CF08B
:1019E000F4EF0CF0F8EF0CF08BEC0EF0FAEF0CF0DB
:1019F0005BEC0FF03FEC10F0A7EC0EF00009D8B450
:101A000004EF0DF006EF0DF0FCEF0CF00750D8B42A
:101A10000CEF0DF00EEF0DF010EF0DF08BEC0EF063
:101A20003FEC10F070EC0FF03FEC10F012002F6E56
:101A30002E50D8A41EEF0DF020EF0DF022EF0DF088
:101A40002FC045F02E04D8A428EF0DF02AEF0DF09A
:101A50002CEF0DF02FC044F0020E2E18D8A433EF57
:101A60000DF035EF0DF037EF0DF02FC043F0030E02
:101A70002E18D8A43EEF0DF040EF0DF042EF0DF020
:101A80002FC042F01200000E026E180E016E000E02
:101A9000046E000E036EC6EC05F0000E026E190E09
:101AA000016E000E046E000E036EC6EC05F0000E13
:101AB000026E1A0E016E000E046E000E036EC6EC6E
:101AC00005F0000E026E1B0E016E000E046E000E7D
:101AD000036EC6EC05F06CEC0EF01200000E146EF6
:101AE000000E136E84EF0DF013500F24116E14507E
:101AF0001020126E11C0F6FF12C0F7FF0800F5505B
:101B0000F9EC0FF0134A142A13500F24116E1450DD
:101B10001020126E11C0F6FF12C0F7FF0800F5503A
:101B20000009D8A496EF0DF098EF0DF074EF0DF0CA
:101B30001200000E026E080E016E000E046E000E02
:101B4000036E9FEC04F0000E096E000E026E1E0E76
:101B5000016E800E0714036E046A9FEC04F09AEC89
:101B60000FF0D89007360836092A070E0964BBEF34
:101B70000DF0BDEF0DF0A5EF0DF085EC0FF01200AC
:101B8000000E026E000E016E000E046E010E036E5A
:101B9000C6EC05F0000E026E010E016E000E046E22
:101BA000010E036EC6EC05F0000E026E020E016E11
:101BB000000E046E010E036EC6EC05F0C2800C0E22
:101BC000C16EAA0EC06E1200000E086ED00E096E15
:101BD000010E8EEC0CF0000E086E11C009F0000E24
:101BE0008EEC0CF0000E086ED10E096E010E8EEC1C
:101BF0000CF0010E086E010E5AEC0CF0136E13502F
:101C0000146E156A14C011F015C012F01200415084
:101C1000D8B40DEF0EF00FEF0EF01FEF0EF08BECBF
:101C20000EF03FEC10F0A7EC0EF00009D8B41BEF5B
:101C30000EF01DEF0EF013EF0EF03FEC10F08BECFA
:101C40000EF05BEC0FF03FEC10F070EC0FF0010EBB
:101C5000416E12000F0E2414266E000E2514276EFE
:101C6000000E196E100E186E24C016F025C017F065
:101C700076EC0AF016C01EF017C01FF0000E216EA1
:101C80000A0E206ED5EC0FF026501E24246E27502D
:101C90001F20256E1200000E026E1C0E016E000E3B
:101CA000046E010E036E9FEC04F0000E026E050E32
:101CB000016E40EC10F0000E026E1C0E016E000E64
:101CC000046E000E036E9FEC04F0000E026E050E13
:101CD000016E40EC10F01200000E026E1F0E016E3D
:101CE000000E046E000E036EC6EC05F0000E026ED0
:101CF000080E016E000E046E000E036EC6EC05F0B9
:101D0000000E026E1E0E016E000E046E000E036EBB
:101D1000C6EC05F01200000E026E0C0E016E000EF5
:101D2000046E010E036EC6EC05F0000E026E0C0E82
:101D3000016EA3EC07F001500210D8A4A2EF0EF040
:101D4000A5EF0EF0010EA6EF0EF0000E1200000E31
:101D5000026E0B0E016E000E046E010E036EC6ECD9
:101D600005F0000E026E0B0E016EA3EC07F00150A1
:101D70000210D8A4BEEF0EF0C1EF0EF0010EC2EFBC
:101D80000EF0000E1200800E08EC10F01B0E0F6E0D
:101D9000060E106E6EEC0DF0C00E08EC10F0D89030
:101DA0003F34D96E4034DA6E530ED926000EDA2253
:101DB000DECF0FF0DDCF10F06EEC0DF01200480E0C
:101DC000F66E200EF76E000EF86E00EE4BF010EE81
:101DD00014F00900F5CFEEFFE550E150FAE100EE16
:101DE00035F0160EEE6AE806FDE1000EF86E000111
:101DF000F3EF08F06CEC0EF0000E026E0A0E016EAE
:101E0000000E046E010E036EC6EC05F0000E026EAD
:101E1000090E016E000E046E010E036EC6EC05F095
:101E20000C0EC16E12008BEC0EF03FEC10F0A7EC24
:101E30000EF00009D8B41FEF0FF021EF0FF017EFED
:101E40000FF08BEC0EF0076E3FEC10F070EC0FF023
:101E50003FEC10F007501200000E056E000E046EED
:101E600034EF0FF0044A052A0150045C0550800A43
:101E7000036E0250800A0358D8A041EF0FF043EFE1
:101E80000FF032EF0FF012005BEC0FF03FEC10F0B0
:101E9000A7EC0EF00009D8B450EF0FF052EF0FF09E
:101EA00048EF0FF03FEC10F08BEC0EF03FEC10F031
:101EB000000E416E1200000E026E0C0E016E000E3E
:101EC000046E000E036EC6EC05F0000E026E0C0EE2
:101ED000016E000E046E000E036E9FEC04F0120003
:101EE000000E026E0B0E016E000E046E000E036EED
:101EF000C6EC05F0000E026E0B0E016E000E046EB5
:101F0000000E036E9FEC04F01200000E026E1F0E16
:101F1000016E000E046E010E036E9FEC04F0000EC5
:101F2000026E1F0E016E000E046E000E036E9FEC1B
:101F300004F01200000E026E080E016E000E046E18
:101F4000010E036E9FEC04F0000E026E080E016E8F
:101F5000000E046E000E036E9FEC04F01200480E9B
:101F6000016EE80E026E010E036E000E046E0FC0CD
:101F700005F010C006F0076A086A8DEC09F001044C
:101F8000CB6E12000C6E0CC007F0086A99EC0DF0D5
:101F9000000E026E1D0E016E0AC003F00BC004F0AD
:101FA0009FEC04F04BEC0EF012001E502002F3CF19
:101FB00022F0F4CF23F01E502102F35023261F50AD
:101FC0002002F350232622C01EF023C01FF012006F
:101FD000D8900134036E0234046E031E041E320EC8
:101FE000035E000E045A0450D76E03C0D6FFF2946D
:101FF00012000E6E000E0B6E010E0A6E0E50BEEC3D
:102000000CF0000E026E500E016E40EC10F012004B
:102010000E6E000E0B6E000E0A6E0E50BEEC0CF033
:10202000000E026E020E016E2CEC0FF01200949264
:10203000030ECA12CA840C0EBA6E000E106E640E25
:102040000F6EAFEC0FF0120005000F001E000A002B
:102050003D064E065C06670610001000F2A433EF42
:1020600010F035EF10F02EEF10F0120039C001F033
:102070003AC002F01200080ED56ED58E1200120082
:0220800012004C
:020000040020DA
:08000000FFFFFFFFFFFFFFFF00
:020000040030CA
:0E000000FF027100FF8380FF0FC00FE00F4072
:00000001FF
